:1000000014C0E3C02DC086C02BC074C057C028C028
:1000100027C026C025C024C023C022C021C020C0C4
:100020001FC01EC01DC01CC01BC011241FBECFE5B9
:10003000D1E0DEBFCDBF10E0A0E6B0E0E0E2F5E049
:1000400002C005900D92A837B107D9F720E0A8E7C4
:10005000B0E001C01D92A73BB207E1F7F2D15EC24A
:10006000CFCF8E98969A8B9A939A8A98929A8C9AD6
:100070009498089512B88AE189B988E18AB986E02E
:1000800083B9089583B7836083BF89B7826089BFCE
:100090008EB580688EBD8EB58F7B8EBD8EB583602C
:1000A0008EBD89B7806889BF89B7886089BF85B7E9
:1000B000886085BF8BB780648BBF08958F938FB79F
:1000C0008F939F9380917E008F5F80937E008091BD
:1000D0007D008F5F80937D008091880090918900E2
:1000E000019690938900809388009F918F918FBF94
:1000F0008F9118958F938FB78F9380918A008F3F40
:1001000029F080918A008F5F80938A008F918FBF42
:100110008F9118951F921FB61F9211244F935F93D2
:100120006F937F938F939F93AF93BF9380917F0043
:10013000882371F08130F1F0BF91AF919F918F9141
:100140007F916F915F914F911F901FBE1F901895E7
:1001500084B595B5B0E0A0E08093840090938500CD
:10016000A0938600B093870080917F008F5F80937B
:100170007F00E2CF84B595B5B0E0A0E08093800029
:1001800090938100A0938200B093830080918000BF
:1001900090918100A0918200B091830040918400F1
:1001A000509185006091860070918700841B950BAB
:1001B00097FF03C0919581959109853691050CF4BF
:1001C000BBCF89B7877789BFCFCF1895CF92DF9202
:1001D000EF92FF92E9E9F0E0A5EBB0E0C12CD12C61
:1001E00076014281538141935193C40ED51EE11C87
:1001F000F11CAE17BF07A9F79093B6008093B50026
:10020000A7019601280F391F411D511DCA01B901CF
:100210002FE030E040E050E05FD1C901FF90EF9067
:10022000DF90CF90089508955D9BFECF8CB908951F
:100230008F929F92AF92BF92CF92DF92EF92FF92F6
:10024000CF936B017C01C42F80E3EEDFC701B601C1
:1002500020E03AEC4AE95BE33FD1812C41EE942E59
:1002600045EFA42E45E0B42EA501940135D1822F8F
:100270008063DADFC701B601A50194012DD150E8F2
:10028000852E56E9952E58E9A52EB12CA50194018D
:1002900023D1822F8063C8DFC701B601A501940175
:1002A0001BD1E0E48E2EE2E49E2EEFE0AE2EB12CC8
:1002B000A501940111D1822F8063B6DFC701B60179
:1002C000A501940109D1F0EA8F2EF6E89F2EAA2409
:1002D000A394B12CA5019401FFD0822F8063A4DFE9
:1002E000C701B601A5019401F7D0A0E18A2EA7E2CB
:1002F0009A2EA12CB12CA5019401EED0822F8063FF
:1003000093DF80917C008823D9F18EE28DDFC701D5
:10031000B60128EE33E040E050E0DED024E6822E45
:10032000912CA12CB12CA5019401D6D0822F8063F1
:100330007BDFC701B601A5019401CED03AE0832E40
:10034000912CA12CB12CA5019401C6D0822F8063E1
:100350006BDFC701B601A5019401BED0862F806373
:1003600063DFCC23D1F08AE05FDF8DE0CF91FF9097
:10037000EF90DF90CF90BF90AF909F908F9054CF31
:10038000C701B601A5019401A7D028EE33E040E0F3
:1003900050E0A2D0822F8063B9CFCF91FF90EF9031
:1003A000DF90CF90BF90AF909F908F9008958BB1CA
:1003B000807208958D9A9598089582B390E2892766
:1003C00082BB089595980895959A089587B3806B98
:1003D00087BB88B38F7488BB87B38F6087BB88B3B4
:1003E0008F6088BB089590E06A3028F4E62FF0E033
:1003F000E259FF4F908181119068C49827E030E066
:10040000892F90E0AC01022E02C0559547950A94C1
:10041000E2F740FF14C0C59AC79AC7982150310926
:1004200088F7C49A9FE0743028F4E72FF0E0E6598B
:10043000FF4F908188B3807F892B88BB0895C59832
:10044000EBCFB8DFC3DF0DDE1DDE14DE85B78065C0
:1004500085BF7894B0906100C0906200D090630036
:10046000E0906400F09065000091660010916700D4
:10047000D0916800C091690060E070E081E0B3DF76
:100480002CEC8CEC9CE0215080409040E1F700C0C7
:100490006B2D7C2D8D2DA7DF2CEC8CEC9CE021505E
:1004A00080409040E1F700C0B701802F9CDF2CEC2A
:1004B0008CEC9CE0215080409040E1F700C0612F1F
:1004C0007D2F8C2F90DF2CEC8CEC9CE02150804019
:1004D0009040E1F700C0D0CFA1E21A2EAA1BBB1BAF
:1004E000FD010DC0AA1FBB1FEE1FFF1FA217B30700
:1004F000E407F50720F0A21BB30BE40BF50B661F16
:10050000771F881F991F1A9469F7609570958095D9
:1005100090959B01AC01BD01CF010895F894FFCFE8
:10052000010101010202010303010E0D0B073F0649
:080530005B4F666D7D077F6FD4
:00000001FF
