:1000000014C052C02DC009C12BC0D7C02AC028C0FF
:1000100027C026C025C024C023C022C021C020C0C4
:100020001FC01EC01DC01CC01BC011241FBECFE5B9
:10003000D1E0DEBFCDBF10E0A0E6B0E0EEE2F5E03B
:1000400002C005900D92A43CB107D9F721E0A4ECC1
:10005000B0E001C01D92AF31B207E1F706D265C230
:10006000CFCF1F920F920FB60F9211242F933F9371
:100070004F935F936F937F938F939F93AF93BF93B0
:10008000EF93FF9317D1FF91EF91BF91AF919F91A4
:100090008F917F916F915F914F913F912F910F9031
:1000A0000FBE0F901F90189518958D9A95988A9865
:1000B000929A85B7826085BF8BB780648BBF0895A5
:1000C00082B390E2892782BB089595980895959A06
:1000D000089580B382FB882780F991E089270895ED
:1000E00087B3806B87BB88B38F7488BB87B38F60FF
:1000F00087BB88B38F6088BB0895DC0112962C9172
:100100001297EC9180E0EA3020F4F0E0EB56FF4FDC
:10011000808121118068C49827E030E090E0AC0134
:10012000022E02C0559547950A94E2F740FF14C08D
:10013000C59AC79AC7982150310988F7C49A9FE099
:10014000643028F4E62FF0E0EF56FF4F908188B33B
:10015000807F892B88BB0895C598EBCF12B88CE0BF
:1001600089B988E18AB986E083B90895FC01919143
:10017000911101C008955D9BFECF9CB9F8CF8E9878
:10018000969A8B9A939A8C9A94988EB580688EBD25
:100190008EB58F7B8EBD8EB583608EBD89B780682E
:1001A00089BF89B7886089BF089594980895949A03
:1001B000089593980895939A08951F921FB61F92D9
:1001C00011248F939F93AF93BF938091DB00909105
:1001D000DC00A091DD00B091DE008F3F9105A1050C
:1001E000B10598F48091DB009091DC00A091DD00D6
:1001F000B091DE000196A11DB11D8093DB009093AC
:10020000DC00A093DD00B093DE00BF91AF919F9121
:100210008F911F901FBE1F9018952F932FB72F936C
:100220003F938F939F938091DF00813049F082301C
:1002300099F09F918F913F912F912FBF2F911895FA
:1002400084B595B59093E3008093E2008091DF0040
:100250008F5F8093DF00EDCF84B595B59093E1007B
:100260008093E0008091E0009091E1002091E20015
:100270003091E300821B930B8B389140D0F289B709
:10028000877789BFE3CF88E198E20FB6F894A89505
:1002900081BD0FBE91BD81B5886081BD0895F89480
:1002A000A89514BE81B5886181BD11BC789408956C
:1002B000A89508958091E4009091E500A091E60052
:1002C000B091E7000196A11DB11D8093E4009093C9
:1002D000E500A093E600B093E70008950F931F9305
:1002E0000091E4001091E5002091E6003091E700D4
:1002F0006091E4007091E5008091E6009091E70044
:10030000601771078207930759F71F910F9108959E
:100310008F929F92AF92BF92EF92FF921F93CF93D3
:10032000DF937C0110E0C12FD0E083E0CC0FDD1F14
:100330008A95E1F7CE0DDF1D8E819F81892B51F4C7
:10034000DF91CF911F91FF90EF90BF90AF909F9062
:100350008F900895C3DF8A809B80AC80BD80AB0105
:10036000BC01481959096A097B0988819981B0E063
:10037000A0E0481759076A077B0740F0EE81FF812C
:100380000995ACDF6A837B838C839D831F5FCBCF12
:1003900086EB90E0EBCE08958091E8008F5F84308B
:1003A00068F48093E8002091E800822F90E063E0F9
:1003B00070E096D0622F85519F4F9FCE1092E8003B
:1003C000F2CF9093EA008093E90008958091E900CC
:1003D0009091EA00009729F001979093EA008093AA
:1003E000E90008959C018091E9009091EA00892B31
:1003F000D1F5EBEEF0E08CE0DF011D928A95E9F794
:10040000862F90E063E070E06BD085519F4F41E014
:10041000FC014283C90160E177E273D0E8EEF3E0CA
:10042000BF016FD06093EB00C901BF016AD0E4E661
:10043000F0E0BF0166D06093EE004093EF00C90189
:10044000BF015FD0EAE0F0E0BF015BD06093F10054
:1004500082E08093F200C901BF0153D08093F40081
:1004600083E08093F500089523CFCDB7DEB7E09702
:100470000FB6F894DEBF0FBECDBF17DE31DE6EDEE5
:100480007EDE01DF83B7826083BF89B7826089BF68
:1004900085B7806585BF789480E3E1E6F0E0DE0112
:1004A000119601900D928A95E1F78FE990E05EDE5A
:1004B0000F5F1F4F08358BE1180711F410E000E0C3
:1004C00008DE882331F088EA90E050DE82E390E095
:1004D00078DF62E0C80186DFCE01019619DFE8CF40
:1004E0000024552704C0080E591F880F991F009734
:1004F00029F076956795B8F37105B9F7802D952F9A
:100500000895AA1BBB1B51E107C0AA1FBB1FA6175A
:10051000B70710F0A61BB70B881F991F5A95A9F7AC
:0E05200080959095BC01CD010895F894FFCF11
:10052E0001010800000000C801CC0000000000CB53
:10053E0001140000000000CC01CC0000000000E619
:10054E000102100000000034020000000000000054
:10055E00000E0D0B073F065B4F666D7D077F6F52DA
:10056E00657365742E0A0D00737720707265737350
:10057E0065642E0A0D0053657269616C20546173B7
:04058E006B0D0A00E7
:00000001FF
