:1000000014C0DAC02DC07DC02BC06BC04EC028C04C
:1000100027C026C025C024C023C022C021C020C0C4
:100020001FC01EC01DC01CC01BC011241FBECFE5B9
:10003000D1E0DEBFCDBF10E0A0E6B0E0EEE7F4E037
:1000400002C005900D92A43AB107D9F720E0A4EAC6
:10005000B0E001C01D92A33EB207E1F741D10DC24D
:10006000CFCF8E98969A8B9A939A8C9A949808955B
:10007000089583B7836083BF89B7826089BF8EB5D7
:1000800080688EBD8EB58F7B8EBD8EB583608EBD34
:1000900089B7806889BF89B7886089BF85B788605C
:1000A00085BF8BB780648BBF08958F938FB78F9375
:1000B0009F938091AA008F5F8093AA008091A900EE
:1000C0008F5F8093A9008091B4009091B500019654
:1000D0009093B5008093B4009F918F918FBF8F91C3
:1000E00018958F938FB78F938091B6008F3F29F02B
:1000F0008091B6008F5F8093B6008F918FBF8F91F4
:1001000018951F921FB61F9211244F935F936F9300
:100110007F938F939F93AF93BF938091AB0088237E
:1001200071F08130F1F0BF91AF919F918F917F91EC
:100130006F915F914F911F901FBE1F90189584B5CE
:1001400095B5B0E0A0E08093B0009093B100A0938B
:10015000B200B093B3008091AB008F5F8093AB008F
:10016000E2CF84B595B5B0E0A0E08093AC00909369
:10017000AD00A093AE00B093AF008091AC00909121
:10018000AD00A091AE00B091AF004091B000509191
:10019000B1006091B2007091B300841B950B97FF82
:1001A00003C0919581959109853691050CF4BBCFDB
:1001B00089B7877789BFCFCF1895CF92DF92EF921B
:1001C000FF92E5ECF0E0A1EEB0E0C12CD12C76017D
:1001D0004281538141935193C40ED51EE11CF11C01
:1001E000AE17BF07A9F79093E2008093E100A70143
:1001F0009601280F391F411D511DCA01B9012FE079
:1002000030E040E050E0E6D0C901FF90EF90DF9091
:10021000CF90089508958D9A95988A98929A089506
:1002200082B390E2892782BB089595980895959AA4
:10023000089582B382FB882780F991E08927089589
:1002400087B3806B87BB88B38F7488BB87B38F609D
:1002500087BB88B38F6088BB0895DC0112968C91B0
:100260001297EC9120E0EA3020F4F0E0E259FF4FE1
:10027000208181112068C49847E050E030E0C90136
:10028000042E02C0959587950A94E2F780FF15C069
:10029000C59AC79AC7984150510988F7C49A1196D0
:1002A000EC919FE0E43020F4F0E0E659FF4F9081BC
:1002B00088B3807F892B88BB0895C598EACF12B890
:1002C0008AE189B988E18AB986E083B90895FC0199
:1002D0009191911101C008955D9BFECF9CB9F8CF1B
:1002E000CDB7DEB72D970FB6F894DEBF0FBECDBFEA
:1002F00092DFA6DFE4DFB5DEBCDE85B7806585BFB3
:10030000789411E02090610030906200409063008A
:10031000609064007090650080906600C0906700F7
:10032000D0906800E09069001B861C861D87CE0176
:100330000B9693DF26E686E696E0215080409040BB
:10034000E1F72B863C864D86CE010B9686DF26E6AE
:1003500086E696E0215080409040E1F76B867C86EF
:100360008D86CE010B9679DF26E686E696E0215053
:1003700080409040E1F7CB86DC86ED86CE010B967F
:100380006CDF26E686E696E0215080409040E1F75B
:1003900088E790E09CDF2AE0AE014F5F5F4F66E8A0
:1003A00076E687EC92E038D0CE01019690DF80EAC5
:1003B00090E08DDF2AE0AE014F5F5F4F6BE270E0AF
:1003C00080E090E029D0CE01019681DF80EA90E0C4
:1003D0007EDFAACFA1E21A2EAA1BBB1BFD010DC016
:1003E000AA1FBB1FEE1FFF1FA217B307E407F507E5
:1003F00020F0A21BB30BE40BF50B661F771F881FC1
:10040000991F1A9469F760957095809590959B0156
:10041000AC01BD01CF010895BB27FA01A62F6217D9
:10042000710581059105330B30FB66F0AA27660F35
:10043000771F881F991FAA1FA21710F0A21B639590
:100440003850A9F7A05DAA3308F0A95DA19336F74B
:10045000B111B1931082CA0100C0DC01FC01672F09
:1004600071917723E1F7329704C07C916D9370838B
:0E0470006291AE17BF07C8F30895F894FFCF4E
:10047E00010101010202010303010E0D0B073F06EC
:10048E005B4F666D7D077F6F3031323334353637D3
:10049E00383930313233343536373839303132330A
:1004AE0034353637383930313233343536373839EA
:0404BE000D0A000023
:00000001FF
