:1000000014C052C02DC040C12BC00EC12AC028C090
:1000100027C026C025C024C023C022C021C020C0C4
:100020001FC01EC01DC01CC01BC011241FBECFE5B9
:10003000D1E0DEBFCDBF10E0A0E6B0E0ECEDF5E032
:1000400002C005900D92AE3AB107D9F720E0AEEAB2
:10005000B0E001C01D92A13EB207E1F74FD2BCC291
:10006000CFCF1F920F920FB60F9211242F933F9371
:100070004F935F936F937F938F939F93AF93BF93B0
:10008000EF93FF934ED1FF91EF91BF91AF919F916D
:100090008F917F916F915F914F913F912F910F9031
:1000A0000FBE0F901F90189518958D9A95988A9865
:1000B000929A85B7826085BF8BB780648BBF0895A5
:1000C00082B390E2892782BB089595980895959A06
:1000D000089590E080E082990895983208F081E0D8
:1000E000E8E1F4E03197F1F700C09F5FF4CF87B308
:1000F000806B87BB88B38F7488BB87B38F6087BBE7
:1001000088B38F6088BB0895DC0112962C911297FA
:10011000EC9180E0EA3020F4F0E0EB56FF4F808174
:1001200021118068C49827E030E090E0AC01022EF5
:1001300002C0559547950A94E2F740FF14C0C59A4E
:10014000C79AC7982150310988F7C49A9FE0643054
:1001500028F4E62FF0E0EF56FF4F908188B3807FC0
:10016000892B88BB0895C598EBCF12B88CE089B96C
:1001700088E18AB986E083B90895FC0191919111D3
:1001800001C008955D9BFECF9CB9F8CF8E98969ADA
:100190008B9A939A8C9A94988EB580688EBD8EB502
:1001A0008F7B8EBD8EB583608EBD89B7806889BF19
:1001B00089B7886089BF089594980895949A08959E
:1001C00093980895939A08958091BF00089510928E
:1001D000C3001092C2001092C1001092C000109291
:1001E000BF001092BB001092BC001092BD00109294
:1001F000BE0089B7886889BF08958091C00090913A
:10020000C1002091C2003091C3004091BB005091C9
:10021000BC006091BD007091BE00B0E0A0E0821B08
:10022000930BA109B10908951F921FB61F921124C3
:100230008F939F93AF93BF938091BB009091BC002D
:10024000A091BD00B091BE008F3F9105A105B10501
:1002500098F48091BB009091BC00A091BD00B0913A
:10026000BE000196A11DB11D8093BB009093BC0000
:10027000A093BD00B093BE00BF91AF919F918F91AD
:100280001F901FBE1F9018952F932FB72F933F934A
:100290008F939F938091BF00882349F0813099F01C
:1002A0009F918F913F912F912FBF2F91189584B5DA
:1002B00095B59093C3008093C2008091BF008F5F7B
:1002C0008093BF00EDCF84B595B59093C100809326
:1002D000C0008091C0009091C1002091C200309177
:1002E000C300821B930B8B389140D0F289B787777C
:1002F00089BFE3CF88E198E20FB6F894A89581BD55
:100300000FBE91BD81B5886081BD0895F894A89510
:1003100014BE81B5886181BD11BC78940895A895FB
:1003200008958091C4009091C500A091C600B0913D
:10033000C7000196A11DB11D8093C4009093C50014
:10034000A093C600B093C70008950F931F93009128
:10035000C4001091C5002091C6003091C700609183
:10036000C4007091C5008091C6009091C7006017CD
:1003700071078207930759F71F910F9108958F9284
:100380009F92AF92BF92EF92FF921F93CF93DF9312
:100390007C0110E0C12FD0E083E0CC0FDD1F8A95F7
:1003A000E1F7CE0DDF1D8E819F81892B51F4DF9106
:1003B000CF911F91FF90EF90BF90AF909F908F9043
:1003C0000895C3DF8A809B80AC80BD80AB01BC01F7
:1003D000481959096A097B0988819981B0E0A0E030
:1003E000481759076A077B0740F0EE81FF8109959E
:1003F000ACDF6A837B838C839D831F5FCBCF8FE9C8
:1004000090E0BBCE08958091C8008F5F843068F47F
:100410008093C8002091C800822F90E063E070E0D4
:10042000B6D0622F85539F4F6FCE1092C800F2CF87
:100430009093CA008093C90008958091C90090915B
:10044000CA00009729F001979093CA008093C900D1
:1004500008959C018091C9009091CA00892BF1F503
:10046000EBECF0E08CE0DF011D928A95E9F7662362
:1004700059F06530A1F581E08093CD008093D000E4
:100480008093D3008093D600C90160E177E290D0D9
:10049000E8EEF3E0BF018CD06093CB00C901BF014F
:1004A00087D0E4E6F0E0BF0183D06093CE0081E026
:1004B0008093CF00C901BF017BD0EAE0F0E0BF012B
:1004C00077D06093D10082E08093D200C901BF0150
:1004D0006FD08093D40083E08093D5000895E62FF9
:1004E000E150FF0BCF0163E070E051D085539F4F87
:1004F00041E0DC0112964C93C7CF11CFCDB7DEB7E8
:10050000E0970FB6F894DEBF0FBECDBFCEDDEFDDB6
:100510002CDE3CDEEFDE83B7826083BF89B782606A
:1005200089BF85B7806585BF789480E3E1E6F0E018
:10053000DE01119601900D928A95E1F7CE010196A8
:100540001EDF42DE823049F42CEC8CEC9CE0215022
:1005500080409040E1F700C03ADEBBDD882381F0A7
:10056000809160008F5F843078F480936000809188
:10057000600065E090E06DDF8AE090E059DFA5DD86
:100580003CDE60E066DFDACF10926000F0CF00243E
:10059000552704C0080E591F880F991F009729F08E
:1005A00076956795B8F37105B9F7802D952F089565
:1005B000AA1BBB1B51E107C0AA1FBB1FA617B70789
:1005C00010F0A61BB70B881F991F5A95A9F78095A5
:0C05D0009095BC01CD010895F894FFCF78
:1005DC0001010800000000FF01CC00000000000237
:1005EC00021400000000000302CC00000000001DFB
:1005FC00020210000000007D02000000000000005C
:10060C00000E0D0B073F065B4F666D7D077F6F532A
:0E061C00657269616C205461736B0D0A0000F9
:00000001FF
