:1000000014C053C02DC041C12BC00FC12AC028C08D
:1000100027C026C025C024C023C022C021C020C0C4
:100020001FC01EC01DC01CC01BC011241FBECFE5B9
:10003000D1E0DEBFCDBF10E0A0E6B0E0EEEDF5E030
:1000400002C005900D92A63AB107D9F720E0A6EAC2
:10005000B0E001C01D92A93DB207E1F750D2BDC288
:10006000CFCF1F920F920FB60F9211242F933F9371
:100070004F935F936F937F938F939F93AF93BF93B0
:10008000EF93FF934FD1C0D1FF91EF91BF91AF910B
:100090009F918F917F916F915F914F913F912F91A0
:1000A0000F900FBE0F901F90189518958D9A9598E8
:1000B0008A98929A85B7826085BF8BB780648BBF20
:1000C000089582B390E2892782BB08959598089598
:1000D000959A089590E080E082990895983208F00A
:1000E00081E0E8E1F4E03197F1F700C09F5FF4CFE1
:1000F00087B3806B87BB88B38F7488BB87B38F60EF
:1001000087BB88B38F6088BB0895DC0112962C9161
:100110001297EC9180E0EA3020F4F0E0E357FF4FD3
:10012000808121118068C49827E030E090E0AC0124
:10013000022E02C0559547950A94E2F740FF14C07D
:10014000C59AC79AC7982150310988F7C49A9FE089
:10015000643028F4E62FF0E0E757FF4F908188B332
:10016000807F892B88BB0895C598EBCF12B88CE0AF
:1001700089B988E18AB986E083B90895FC01919133
:10018000911101C008955D9BFECF9CB9F8CF8E9868
:10019000969A8B9A939A8C9A94988EB580688EBD15
:1001A0008EB58F7B8EBD8EB583608EBD89B780681E
:1001B00089BF89B7886089BF089594980895949AF3
:1001C000089593980895939A08958091B70008959B
:1001D0001092BB001092BA001092B9001092B800B1
:1001E0001092B7001092B3001092B4001092B500B4
:1001F0001092B60089B7886889BF08958091B800C9
:100200009091B9002091BA003091BB004091B300A9
:100210005091B4006091B5007091B600B0E0A0E0DC
:10022000821B930BA109B10908951F921FB61F925B
:1002300011248F939F93AF93BF938091B3009091BC
:10024000B400A091B500B091B6008F3F9105A10513
:10025000B10598F48091B3009091B400A091B500DD
:10026000B091B6000196A11DB11D8093B30090938B
:10027000B400A093B500B093B600BF91AF919F9129
:100280008F911F901FBE1F9018952F932FB72F93FC
:100290003F938F939F938091B700882349F08130DB
:1002A00099F09F918F913F912F912FBF2F9118958A
:1002B00084B595B59093BB008093BA008091B70048
:1002C0008F5F8093B700EDCF84B595B59093B9005B
:1002D0008093B8008091B8009091B9002091BA0045
:1002E0003091BB00821B930B8B389140D0F289B7C1
:1002F000877789BFE3CF88E198E20FB6F894A89595
:1003000081BD0FBE91BD81B5886081BD0895F8940F
:10031000A89514BE81B5886181BD11BC78940895FB
:10032000A89508958091BC009091BD00A091BE0059
:10033000B091BF000196A11DB11D8093BC009093A8
:10034000BD00A093BE00B093BF0008950F931F930C
:100350000091BC001091BD002091BE003091BF0003
:100360006091BC007091BD008091BE009091BF0073
:10037000601771078207930759F71F910F9108952E
:100380008F929F92AF92BF92EF92FF921F93CF9363
:10039000DF937C0110E0C12FD0E083E0CC0FDD1FA4
:1003A0008A95E1F7CE0DDF1D8E819F81892B51F457
:1003B000DF91CF911F91FF90EF90BF90AF909F90F2
:1003C0008F900895C3DF8A809B80AC80BD80AB0195
:1003D000BC01481959096A097B0988819981B0E0F3
:1003E000A0E0481759076A077B0740F0EE81FF81BC
:1003F0000995ACDF6A837B838C839D831F5FCBCFA2
:1004000087E990E0BBCE08958091C0008F5F843073
:1004100068F48093C0002091C000822F90E063E0D8
:1004200070E0B6D0622F8D539F4F6FCE1092C000F8
:10043000F2CF9093C2008093C10008958091C100D3
:100440009091C200009729F001979093C200809389
:10045000C10008959C018091C1009091C200892B38
:10046000F1F5E3ECF0E08CE0DF011D928A95E9F70D
:10047000662359F06530A1F581E08093C500809333
:10048000C8008093CB008093CE00C90160E177E281
:1004900090D0E8EEF3E0BF018CD06093C300C901B7
:1004A000BF0187D0E4E6F0E0BF0183D06093C600CF
:1004B00081E08093C700C901BF017BD0EAE0F0E092
:1004C000BF0177D06093C90082E08093CA00C90160
:1004D000BF016FD08093CC0083E08093CD0008955E
:1004E000E62FE150FF0BCF0163E070E051D08D5358
:1004F0009F4F41E0DC0112964C93C7CF11CFCDB78F
:10050000DEB7A8970FB6F894DEBF0FBECDBFCEDD25
:10051000EFDD2CDE3CDEEFDE83B7826083BF89B780
:10052000826089BF85B7806585BF789488E2E1E6FF
:10053000F0E0DE01119601900D928A95E1F7CE016F
:1005400001961EDF42DE823049F42CEC8CEC9CE0FC
:10055000215080409040E1F700C03ADEBBDD8823A7
:1005600081F0809160008F5F843078F48093600028
:100570008091600065E090E06DDF8AE090E059DFF7
:10058000A5DD3CDE60E066DFDACF10926000F0CFE0
:100590000024552704C0080E591F880F991F009783
:1005A00029F076956795B8F37105B9F7802D952FE9
:1005B0000895AA1BBB1B51E107C0AA1FBB1FA617AA
:1005C000B70710F0A61BB70B881F991F5A95A9F7FC
:0E05D00080959095BC01CD010895F894FFCF61
:1005DE00010108000000000002CC00000000000332
:1005EE0002CC00000000001E020210000000007E7F
:1005FE000200000000000000000E0D0B073F065B1E
:10060E004F666D7D077F6F53657269616C20546113
:06061E00736B0D0A0000E1
:00000001FF
