:1000000014C0E0C02DC082C02BC06BC07FC128C00F
:1000100027C026C025C024C023C022C021C020C0C4
:100020001FC01EC01DC01CC01BC011241FBECFE5B9
:10003000D1E0DEBFCDBF10E0A0E6B0E0E4E6FAE03C
:1000400002C005900D92AC36B107D9F710E0ACE6CE
:10005000B0E001C01D92AC3AB107E1F753D200C540
:10006000CFCF8D9A95988E98969A8B9A939A8A98D4
:10007000929A87B3806B87BB88B38F7488BB87B332
:100080008F6087BB88B38F6088BB8C9A94980895E3
:1000900012B88AE189B988E18AB986E083B90895FE
:1000A00083B7836083BF89B7826089BF8EB580685C
:1000B0008EBD8EB58F7B8EBD8EB583608EBD89B7AC
:1000C000806889BF89B7886089BF85B7886085BF28
:1000D0008BB780648BBF089592B380E2892782BB7F
:1000E00008951F920F920FB60F9211248F93809153
:1000F0007E008F3F29F080917E008F5F80937E008D
:100100008F910F900FBE0F901F9018951F920F9216
:100110000FB60F9211244F935F936F937F938F933A
:100120009F93AF93BF9380917300882319F0813020
:1001300071F03BC084B595B5A0E0B0E08093780045
:1001400090937900A0937A00B0937B0029C084B586
:1001500095B5A0E0B0E08093740090937500A093F3
:100160007600B09377008091740090917500A09113
:100170007600B091770040917800509179006091BD
:100180007A0070917B00841B950B97FF03C09195BB
:10019000819591098536910544F089B7877789BFA4
:1001A000809173008F5F80937300BF91AF919F9197
:1001B0008F917F916F915F914F910F900FBE0F9034
:1001C0001F9018951F920F920FB60F9211240F9047
:1001D0000FBE0F901F9018959C01EEE8F0E080E0B4
:1001E00090E0DC014281538141935193840F951F2C
:1001F000A11DB11D40E0EA3AF407A1F73093AB002E
:100200002093AA00BC01CD01620F731F811D911DB7
:100210002FE030E040E050E07FD3C9010895C79A55
:10022000C79808950F931F93CF93DF93C498C7E0A7
:10023000D0E0082F10E0C8010C2E02C095958795DC
:100240000A94E2F780FF02C0C59A01C0C598E7DFB3
:10025000219788F7C49ADF91CF911F910F9108954C
:100260008A3030F4E82FF0E0EF59FF4F808101C071
:1002700080E061118068D6CF80918D008130E1F0FF
:1002800080F0823039F18330B1F5C29AC398209161
:100290006D0080918B0090918C006AE070E028D313
:1002A00028C0C098C39A2091700080918B009091D3
:1002B0008C0068EE73E01BC0C09AC19820916F005B
:1002C00080918B0090918C0068EE73E011D364E60E
:1002D00070E00DC0C19AC29820916E0080918B0091
:1002E00090918C0064E670E003D36AE070E000D384
:1002F000862F622FB5DF80918D00833020F48F5FD1
:1003000080938D00089510928D0008951F920F9292
:100310000FB60F9211242F933F934F935F936F93D8
:100320007F938F939F93AF93BF93EF93FF938091AE
:1003300072008F5F80937200809171008F5F809355
:10034000710080917C0090917D00019690937D00DA
:1003500080937C0091DFFF91EF91BF91AF919F91CE
:100360008F917F916F915F914F913F912F910F905E
:100370000FBE0F901F9018955D9BFECF8CB908950E
:100380008F929F92AF92BF92CF92DF92EF92FF92A5
:10039000CF936B017C01C42F80E3EEDFC701B60170
:1003A00020E03AEC4AE95BE3B7D2812C41EE942E8F
:1003B00045EFA42E45E0B42EA5019401ADD2822FC5
:1003C0008063DADFC701B601A5019401A5D250E828
:1003D000852E56E9952E58E9A52EB12CA50194013C
:1003E0009BD2822F8063C8DFC701B601A5019401AB
:1003F00093D2E0E48E2EE2E49E2EEFE0AE2EB12CFE
:10040000A501940189D2822F8063B6DFC701B601AE
:10041000A501940181D2F0EA8F2EF6E89F2EAA243E
:10042000A394B12CA501940177D2822F8063A4DF1D
:10043000C701B601A50194016FD2A0E18A2EA7E2FF
:100440009A2EA12CB12CA501940166D2822F806333
:1004500093DF80917000882311F08EE20CC0C701F9
:10046000B601A501940158D228EE33E040E050E0F7
:1004700053D2822F806380DFC701B60128EE33E0BC
:1004800040E050E049D224E6822E912CA12CB12CE0
:10049000A501940141D2822F80636EDFC701B601AE
:1004A000A501940139D23AE0832E912CA12CB12CD4
:1004B000A501940131D2822F80635EDFC701B601AE
:1004C000A501940129D2862F806356DFCC2369F0E1
:1004D0008AE052DF8DE0CF91FF90EF90DF90CF90D8
:1004E000BF90AF909F908F9047CFCF91FF90EF90AC
:1004F000DF90CF90BF90AF909F908F9008958BB179
:1005000080720895CF93DF93CDB7DEB728970FB6EB
:10051000F894DEBF0FBECDBFA4DDC2DDB9DD85B767
:10052000806585BF78940AE010E0C12CD12C76015B
:10053000E394812C912C4CE3A42EB12C33243394DE
:1005400082992EC0809160008F5F843018F4809370
:10055000600002C0109260003092700030926F0014
:1005600030926E0030926D008091600090E0909328
:100570008C0080938B002CEC3CEC4CE02150304004
:100580004040E1F700C010928C0010928B00109256
:10059000700010926F0010926E0010926D0095988E
:1005A00080917300823008F4FEC040917400509135
:1005B000750060917600709177008091780090913D
:1005C0007900A0917A00B0917B00481759076A071B
:1005D0007B0788F48091740090917500A09176005B
:1005E000B091770011968093740090937500A0935A
:1005F0007600B0937700409174005091750060913F
:10060000760070917700409078005090790060906B
:100610007A0070907B0080917E004419550966092C
:10062000770990E0A0E0B0E0DC01992788279A01E3
:10063000AB01280F391F4A1F5B1F20937F003093A7
:10064000800040938100509382008091600082304E
:1006500089F0833061F1813009F043C0C501B401F4
:100660005BD1309386002093850030938C002093DB
:100670008B0037C02130310581E04807510538F043
:100680001092840010928300309270000BC0C7015A
:10069000B60142D130938400209383001092700001
:1006A00010926F00809183009091840016C0CA015F
:1006B000B90128EE33E040E050E052D129833A837B
:1006C0004B835C836D837E838F83988729813A81F6
:1006D0004B815C81CA01AA27BB2790938C00809331
:1006E0008B0080918B0090918C008031974268F054
:1006F00080918B0090918C00B801FAD070938C009F
:1007000060938B0030926F0002C010926F00809156
:100710007F0090918000A0918100B09182000197AC
:10072000A109B10989399941A105B10550F4809118
:100730008B0090918C0050DD90938C0080938B0007
:1007400005C080918B0090918C0046DD80918B00DC
:1007500090918C00A0E0B0E0809387009093880097
:10076000A0938900B0938A008091740090917500E5
:10077000A0917600B09177008093780090937900F3
:10078000A0937A00B0937B003092730010927E00A9
:1007900089B7886889BF10927200949A9DDC109284
:1007A0007D0010927C00809172008111949880915C
:1007B00071008F37E0F1609187007091880080911F
:1007C000890090918A0040E0DBDD8CE2D5DD8091EC
:1007D0006000823051F0833061F0813071F483E445
:1007E000CBDD80E5C9DD8DE407C088E4C5DD8AE79F
:1007F00003C08DE6C1DD83E5BFDD8CE2BDDD609128
:100800007F0070918000809181009091820040E093
:10081000B7DD8CE2B1DD83E4AFDD8CE4ADDD8BE4EC
:10082000ABDD8AE0A9DD8DE0A7DD1092710080913B
:100830007F0090918000A0918100B091820001978B
:10084000A109B1098C359F40A105B10510F4309282
:100850006C0080917C0090917D008115954028F17D
:1008600080916C00813009F510928C0010928B0001
:1008700010928700109288001092890010928A00CE
:1008800010927D0010927C0010927F0010928000E8
:1008900010928100109282001092700010926F00EE
:1008A00010926E0010926D009598809160008111F9
:1008B00047CE10928C0010928B00109287001092FD
:1008C00088001092890010928A0010927D00109288
:1008D0007C00949895989398A5DC10926C0085B74D
:1008E000806285BF889585B78F7D85BF939A28CE16
:1008F000AA1BBB1B51E107C0AA1FBB1FA617B70746
:1009000010F0A61BB70B881F991F5A95A9F7809561
:100910009095BC01CD010895A1E21A2EAA1BBB1B24
:10092000FD010DC0AA1FBB1FEE1FFF1FA217B307BB
:10093000E407F50720F0A21BB30BE40BF50B661FD1
:10094000771F881F991F1A9469F760957095809595
:1009500090959B01AC01BD01CF01089568940010F2
:10096000E894A0E0B0E0E6EBF4E01DC0EFEFE7F9BB
:1009700059016A015E23550FEE08FE2C87019B0189
:10098000AC019E23990F660B762FCB013BD0CDB7E0
:10099000DEB7EAE024C02F923F924F925F926F92AF
:1009A0007F928F929F92AF92BF92CF92DF92EF92FF
:1009B000FF920F931F93CF93DF93CDB7DEB7CA1B80
:1009C000DB0B0FB6F894DEBF0FBECDBF09942A88AB
:1009D000398848885F846E847D848C849B84AA8453
:1009E000B984C884DF80EE80FD800C811B81AA81E0
:1009F000B981CE0FD11D0FB6F894DEBF0FBECDBFAB
:100A0000ED010895DF93CF939F92A0E49A2E0024E6
:100A1000D001E001F00116950795F794E794D7947B
:100A2000C794B794A79448F41068A20FB31FC41FCB
:100A3000D51FE61FF71F081E191E220F331F441F64
:100A4000551F661F771F881F991F9A9421F79D01D4
:100A5000AE01BF01C00111249F90CF91DF91089595
:040A6000F894FFCF38
:0C0A6400013F065B4F666D7D077F6F0051
:00000001FF
