:1000000014C0DAC02DC07DC02BC06BC04EC028C04C
:1000100027C026C025C024C023C022C021C020C0C4
:100020001FC01EC01DC01CC01BC011241FBECFE5B9
:10003000D1E0DEBFCDBF10E0A0E6B0E0EEEDF3E032
:1000400002C005900D92A239B107D9F720E0A2E9CC
:10005000B0E001C01D92A13DB207E1F741D1BDC1A1
:10006000CFCF8E98969A8B9A939A8C9A949808955B
:10007000089583B7836083BF89B7826089BF8EB5D7
:1000800080688EBD8EB58F7B8EBD8EB583608EBD34
:1000900089B7806889BF89B7886089BF85B788605C
:1000A00085BF8BB780648BBF08958F938FB78F9375
:1000B0009F93809198008F5F809398008091970024
:1000C0008F5F809397008091A2009091A30001968A
:1000D0009093A3008093A2009F918F918FBF8F91E7
:1000E00018958F938FB78F938091A4008F3F29F03D
:1000F0008091A4008F5F8093A4008F918FBF8F9118
:1001000018951F921FB61F9211244F935F936F9300
:100110007F938F939F93AF93BF9380919900882390
:1001200071F08130F1F0BF91AF919F918F917F91EC
:100130006F915F914F911F901FBE1F90189584B5CE
:1001400095B5B0E0A0E080939E0090939F00A093AF
:10015000A000B093A100809199008F5F80939900D7
:10016000E2CF84B595B5B0E0A0E080939A0090937B
:100170009B00A0939C00B0939D0080919A00909169
:100180009B00A0919C00B0919D0040919E005091D9
:100190009F006091A0007091A100841B950B97FFB8
:1001A00003C0919581959109853691050CF4BBCFDB
:1001B00089B7877789BFCFCF1895CF92DF92EF921B
:1001C000FF92E3EBF0E0AFECB0E0C12CD12C760174
:1001D0004281538141935193C40ED51EE11CF11C01
:1001E000AE17BF07A9F79093D0008093CF00A70167
:1001F0009601280F391F411D511DCA01B9012FE079
:1002000030E040E050E0C7D0C901FF90EF90DF90B0
:10021000CF90089508958D9A95988A98929A089506
:1002200082B390E2892782BB089595980895959AA4
:10023000089582B382FB882780F991E08927089589
:1002400087B3806B87BB88B38F7488BB87B38F609D
:1002500087BB88B38F6088BB0895DC0112968C91B0
:100260001297EC9120E0EA3020F4F0E0E259FF4FE1
:10027000208181112068C49847E050E030E0C90136
:10028000042E02C0959587950A94E2F780FF15C069
:10029000C59AC79AC7984150510988F7C49A1196D0
:1002A000EC919FE0E43020F4F0E0E659FF4F9081BC
:1002B00088B3807F892B88BB0895C598EACF12B890
:1002C0008AE189B988E18AB986E083B90895FC0199
:1002D0009191911101C008955D9BFECF9CB9F8CF1B
:1002E00000D00F92CDB7DEB796DFAADFE8DFB9DE28
:1002F000C0DE85B7806585BF789411E020906100ED
:1003000030906200409063006090640070906500DF
:1003100080906600C0906700D0906800E09069000F
:1003200019821A821B83CE01019697DF26E686E6A4
:1003300096E0215080409040E1F729823A824B823A
:10034000CE0101968ADF26E686E696E021508040BF
:100350009040E1F769827A828B82CE0101967DDF3F
:1003600026E686E696E0215080409040E1F7C9827B
:10037000DA82EB82CE01019670DF26E686E696E011
:10038000215080409040E1F788E790E0A0DF80E8CE
:1003900090E09DDFC5CFA1E21A2EAA1BBB1BFD0179
:1003A0000DC0AA1FBB1FEE1FFF1FA217B307E40754
:1003B000F50720F0A21BB30BE40BF50B661F771FAC
:1003C000881F991F1A9469F760957095809590958C
:0E03D0009B01AC01BD01CF010895F894FFCF51
:1003DE00010101010202010303010E0D0B073F068D
:1003EE005B4F666D7D077F6F54657374210D0A0038
:1003FE00416E6F7468657220746573742121210DCE
:02040E000A00E2
:00000001FF
