:1000000014C052C02DC02BC12BC0F9C02AC028C0BB
:1000100027C026C025C024C023C022C021C020C0C4
:100020001FC01EC01DC01CC01BC011241FBECFE5B9
:10003000D1E0DEBFCDBF10E0A0E6B0E0E8E0F6E042
:1000400002C005900D92A63BB107D9F721E0A6EBBF
:10005000B0E001C01D92A131B207E1F73FD2D2C298
:10006000CFCF1F920F920FB60F9211242F933F9371
:100070004F935F936F937F938F939F93AF93BF93B0
:10008000EF93FF9339D1FF91EF91BF91AF919F9182
:100090008F917F916F915F914F913F912F910F9031
:1000A0000FBE0F901F9018951F920F920FB60F92D0
:1000B00011242F933F934F935F936F937F938F936D
:1000C0009F93AF93BF93EF93FF9316D0FF91EF9160
:1000D000BF91AF919F918F917F916F915F914F9160
:1000E0003F912F910F900FBE0F901F9018958D9AF2
:1000F00095988A98929A089582B390E2892782BB54
:10010000089595980895959A089580B382FB88275D
:1001100080F991E08927089587B3806B87BB88B306
:100120008F7488BB87B38F6087BB88B38F6088BBB1
:100130000895DC0112962C911297EC9180E0EA3040
:1001400020F4F0E0EB56FF4F808121118068C498C5
:1001500027E030E090E0AC01022E02C055954795B3
:100160000A94E2F740FF14C0C59AC79AC798215075
:10017000310988F7C49A9FE0643028F4E62FF0E054
:10018000EF56FF4F908188B3807F892B88BB0895FD
:10019000C598EBCF12B88CE089B988E18AB986E0BE
:1001A00083B90895FC019191911101C008955D9B5F
:1001B000FECF9CB9F8CF8E98969A8B9A939A8C9A88
:1001C00094988EB580688EBD8EB58F7B8EBD8EB5B2
:1001D00083608EBD89B7806889BF89B7886089BF11
:1001E00085B7826085BF8BB780648BBF0895949874
:1001F0000895949A089593980895939A08951F9254
:100200001FB61F9211248F939F93AF93BF9380913A
:10021000CD009091CE00A091CF00B091D0008F3F43
:100220009105A105B10598F48091CD009091CE0083
:10023000A091CF00B091D0000196A11DB11D809377
:10024000CD009093CE00A093CF00B093D000BF918B
:10025000AF919F918F911F901FBE1F9018952F9364
:100260002FB72F933F938F939F938091D10081302D
:1002700049F0823099F09F918F913F912F912FBF3C
:100280002F91189584B595B59093D5008093D4009F
:100290008091D1008F5F8093D100EDCF84B595B56B
:1002A0009093D3008093D2008091D2009091D3009C
:1002B0002091D4003091D500821B930B8B38914054
:1002C000D0F289B7877789BFE3CF88E198E20FB68C
:1002D000F894A89581BD0FBE91BD81B5886081BDA0
:1002E0000895F894A89514BE81B5886181BD11BCAC
:1002F00078940895A89508958091D6009091D7009C
:10030000A091D800B091D9000196A11DB11D809394
:10031000D6009093D700A093D800B093D900089549
:100320000F931F930091D6001091D7002091D80011
:100330003091D9006091D6007091D7008091D8009B
:100340009091D900601771078207930759F71F91A1
:100350000F9108958F929F92AF92BF92EF92FF926A
:100360001F93CF93DF937C0110E0C12FD0E083E097
:10037000CC0FDD1F8A95E1F7CE0DDF1D8E819F81A9
:10038000892B51F4DF91CF911F91FF90EF90BF9097
:10039000AF909F908F900895C3DF8A809B80AC8040
:1003A000BD80AB01BC01481959096A097B098881E4
:1003B0009981B0E0A0E0481759076A077B0740F031
:1003C000EE81FF810995ACDF6A837B838C839D83FB
:1003D0001F5FCBCF88EA90E0E5CE08958091DA00E8
:1003E0008F5F843068F48093DA002091DA00822FE6
:1003F00090E063E070E0B0D0622F83529F4F99CEBF
:100400001092DA00F2CFCF93DF93EC016091DB0022
:100410007091DC0090E080E02AE047E051E0C1D03C
:1004200087E091E0BFDE83EB90E0BCDE88819981BC
:100430009093DC008093DB00DF91CF910895809151
:10044000DB009091DC00009729F001979093DC008D
:100450008093DB0008959C018091DB009091DC008B
:10046000892BD1F5EDEDF0E08CE0DF011D928A954E
:10047000E9F7862F90E063E070E06ED083529F4FE3
:1004800041E0FC014283C90160E177E276D0E8EE09
:10049000F3E0BF0172D06093DD00C901BF016DD0F0
:1004A000E4E6F0E0BF0169D06093E0004093E10032
:1004B000C901BF0162D0EAE0F0E0BF015ED0609305
:1004C000E30082E08093E400C901BF0156D080932D
:1004D000E60083E08093E70008950CCFCDB7DEB748
:1004E000EA970FB6F894DEBF0FBECDBF00DE14DE74
:1004F00051DE61DEEADE83B7826083BF89B7826046
:1005000089BF85B7806585BF789480E3E1E6F0E038
:10051000DE01119601900D928A95E1F78FE990E046
:1005200041DE0F5F1F4F08358BE1180711F410E013
:1005300000E0F6DE2AE0AE014F5C5F4F32D0CE0124
:10054000C19630DE85EA90E02DDE62E0C80183DFEF
:10055000CE010196FFDEE5CF0024552704C0080E2A
:10056000591F880F991F009729F076956795B8F362
:100570007105B9F7802D952F0895AA1BBB1B51E17A
:1005800007C0AA1FBB1FA617B70710F0A61BB70B03
:10059000881F991F5A95A9F780959095BC01CD01A8
:1005A0000895BB27FA01A62F6217710581059105F1
:1005B000330B30FB66F0AA27660F771F881F991F41
:1005C000AA1FA21710F0A21B63953850A9F7A05DCF
:1005D000AA3308F0A95DA19336F7B111B193108247
:1005E000CA0100C0DC01FC01672F71917723E1F79C
:1005F000329704C07C916D9370836291AE17BF07F0
:08060000C8F30895F894FFCF40
:1006080001010800000000EA01CC0000000000ED34
:1006180001020000000000EE010200000000001FBF
:10062800020210000000006D02000000000000003F
:10063800000E0D0B073F065B4F666D7D077F6F52FF
:10064800657365742E0A0D0053657269616C2054D8
:0606580061736B0D0A0046
:00000001FF
