:1000000014C053C02DC034C12BC002C12AC028C0A7
:1000100027C026C025C024C023C022C021C020C0C4
:100020001FC01EC01DC01CC01BC011241FBECFE5B9
:10003000D1E0DEBFCDBF10E0A0E6B0E0E4EEF6E038
:1000400002C005900D92A23AB107D9F720E0A2EACA
:10005000B0E001C01D92AC3CB207E1F77DD240C3D5
:10006000CFCF1F920F920FB60F9211242F933F9371
:100070004F935F936F937F938F939F93AF93BF93B0
:10008000EF93FF9372D1EDD1FF91EF91BF91AF91BB
:100090009F918F917F916F915F914F913F912F91A0
:1000A0000F900FBE0F901F90189518958D9A9598E8
:1000B0008A98929A85B7826085BF8BB780648BBF20
:1000C000089582B390E2892782BB08959598089598
:1000D000959A089590E080E082990895983208F00A
:1000E00081E0E8E1F4E03197F1F700C09F5FF4CFE1
:1000F00087B3806B87BB88B38F7488BB87B38F60EF
:1001000087BB88B38F6088BB0895DC0112962C9161
:100110001297EC9180E0EA3020F4F0E0EB57FF4FCB
:10012000808121118068C49827E030E090E0AC0124
:10013000022E02C0559547950A94E2F740FF14C07D
:10014000C59AC79AC7982150310988F7C49A9FE089
:10015000643028F4E62FF0E0EF57FF4F908188B32A
:10016000807F892B88BB0895C598EBCF12B88CE0AF
:1001700089B988E18AB986E083B90895FC01919133
:10018000911101C008955D9BFECF9CB9F8CF8E9868
:10019000969A8B9A939A8C9A94988EB580688EBD15
:1001A0008EB58F7B8EBD8EB583608EBD89B780681E
:1001B00089BF89B7886089BF089594980895949AF3
:1001C000089593980895939A08958091AA000895A8
:1001D0008091AB009091AC009093AE008093AD0005
:1001E00081E08093AA001092A6001092A7001092BE
:1001F000A8001092A90089B7886889BF0895609106
:10020000A2007091A3008091A4009091A500089590
:100210001F921FB61F9211248F939F93AF93BF938A
:100220008091A6009091A700A091A800B091A9008C
:100230008F3F9105A105B10598F48091A60090919A
:10024000A700A091A800B091A9000196A11DB11D21
:100250008093A6009093A700A093A800B093A90054
:10026000BF91AF919F918F911F901FBE1F901895C6
:100270000F920FB60F921F9211242F933F934F931B
:100280005F936F937F938F939F93AF93BF93EF93FE
:10029000FF938091AA00882399F08130E9F0FF91C3
:1002A000EF91BF91AF919F918F917F916F915F91EE
:1002B0004F913F912F911F900F900FBE0F90189567
:1002C00084B595B59093AE008093AD008091AA005F
:1002D0008F5F8093AA00E3CF84B595B59093AC006F
:1002E0008093AB0089B7877789BF6091AB0070912D
:1002F000AC008091AD009091AE002091A6003091AD
:10030000A7004091A8005091A900A90133272227F6
:10031000260F371F411D511D281B390B410951095B
:1003200060E070E080E490E088D12093A2003093F8
:10033000A3004093A4005093A500C8CF88E198E2A1
:100340000FB6F894A89581BD0FBE91BD81B58860A8
:1003500081BD0895F894A89514BE81B5886181BDCA
:1003600011BC78940895A89508958091AF0090915C
:10037000B000A091B100B091B2000196A11DB11DD5
:100380008093AF009093B000A093B100B093B200FF
:1003900008950F931F930091AF001091B00020912A
:1003A000B1003091B2006091AF007091B0008091C7
:1003B000B1009091B200601771078207930759F757
:1003C0001F910F9108958F929F92AF92BF92EF92DB
:1003D000FF921F93CF93DF937C0110E0C12FD0E0F9
:1003E00083E0CC0FDD1F8A95E1F7CE0DDF1D8E81F6
:1003F0009F81892B51F4DF91CF911F91FF90EF9056
:10040000BF90AF909F908F900895C3DF8A809B80AC
:10041000AC80BD80AB01BC01481959096A097B0950
:1004200088819981B0E0A0E0481759076A077B07E7
:1004300040F0EE81FF810995ACDF6A837B838C837A
:100440009D831F5FCBCF8FE890E098DED8DE2AE057
:1004500042EC50E014D182EC90E090DE8EE990E026
:100460008DCE8091B3008F5F843068F48093B300A9
:100470002091B300822F90E063E070E0B9D0622F4A
:100480008A549F4F42CE1092B300F2CF9093B500A2
:100490008093B40008958091B4009091B5000097C6
:1004A00029F001979093B5008093B40008959C01C2
:1004B0008091B4009091B500892BF1F5E6EBF0E066
:1004C0008CE0DF011D928A95E9F7662359F06530CB
:1004D000A1F581E08093B8008093BB008093BE00BB
:1004E0008093C100C90160E177E293D0E8EEF3E0C8
:1004F000BF018FD06093B600C901BF018AD0E4E686
:10050000F0E0BF0186D06093B90081E08093BA002B
:10051000C901BF017ED0EAE0F0E0BF017AD060936C
:10052000BC0082E08093BD00C901BF0172D08093FE
:10053000BF0083E08093C0000895E62FE150FF0BD9
:10054000CF0163E070E054D08A549F4F41E0DC015A
:1005500012964C93C7CF07CFCDB7DEB7A0970FB693
:10056000F894DEBF0FBECDBFA1DDC2DDFFDD0FDE23
:10057000E5DE83B7826083BF89B7826089BF85B7B4
:10058000806585BF789480E2E1E6F0E0DE011196B7
:1005900001900D928A95E1F7CE01019614DF9ADD64
:1005A0008823C1F0809160008F5F8430F0F48093E5
:1005B00060008091600065E090E079DF26E686E6E5
:1005C00096E0215080409040E1F760E090E080E0CC
:1005D0006EDF7CDDFADD8230F9F611DE6B01F8DDCD
:1005E00060E0C60164DF6DDDD7CF10926000E1CF1F
:1005F0000024552704C0080E591F880F991F009723
:1006000029F076956795B8F37105B9F7802D952F88
:100610000895AA1BBB1B51E107C0AA1FBB1FA61749
:10062000B70710F0A61BB70B881F991F5A95A9F79B
:1006300080959095BC01CD010895A1E21A2EAA1BC8
:10064000BB1BFD010DC0AA1FBB1FEE1FFF1FA21782
:10065000B307E407F50720F0A21BB30BE40BF50B7F
:10066000661F771F881F991F1A9469F76095709508
:10067000809590959B01AC01BD01CF010895BB27EA
:10068000FA01A62F6217710581059105330B30FB26
:1006900066F0AA27660F771F881F991FAA1FA21747
:1006A00010F0A21B63953850A9F7A05DAA3308F09B
:1006B000A95DA19336F7B111B1931082CA0100C0B0
:1006C000DC01FC01672F71917723E1F7329704C0B9
:1006D0007C916D9370836291AE17BF07C8F3089544
:0406E000F894FFCFBC
:1006E400010108000000002302CC00000000004BC0
:1006F40002021000000000AB020000000000000035
:10070400000E0D0B073F065B4F666D7D077F6F463E
:1007140072657175656E637920487A3A20000A0D16
:020724000000D3
:00000001FF
