:1000000014C0D3C02DC076C02BC064C075C128C039
:1000100027C026C025C024C023C022C021C020C0C4
:100020001FC01EC01DC01CC01BC011241FBECFE5B9
:10003000D1E0DEBFCDBF10E0A0E6B0E0ECE7F9E034
:1000400002C005900D92AC36B107D9F720E0ACE6BE
:10005000B0E001C01D92AC3AB207E1F755D28CC4B2
:10006000CFCF8E98969A8B9A939A8A98929A87B3C2
:10007000806B87BB88B38F7488BB87B38F6087BB67
:1000800088B38F6088BB8C9A9498089512B88AE1DF
:1000900089B988E18AB986E083B9089583B7836016
:1000A00083BF89B7826089BF8EB580688EBD8EB5EB
:1000B0008F7B8EBD8EB583608EBD89B7806889BF0A
:1000C00089B7886089BF85B7886085BF8BB7806432
:1000D0008BBF08958F938FB78F9380917E008F3F52
:1000E00029F080917E008F5F80937E008F918FBF7B
:1000F0008F9118951F921FB61F9211244F935F93F3
:100100006F937F938F939F93AF93BF93809173006F
:10011000882371F08130F1F0BF91AF919F918F9161
:100120007F916F915F914F911F901FBE1F90189507
:1001300084B595B5B0E0A0E0809378009093790005
:10014000A0937A00B0937B00809173008F5F8093BF
:100150007300E2CF84B595B5B0E0A0E08093740061
:1001600090937500A0937600B0937700809174000F
:1001700090917500A0917600B09177004091780041
:100180005091790060917A0070917B00841B950BEF
:1001900097FF03C0919581959109853691050CF4DF
:1001A000BBCF89B7877789BFCFCF1895CF92DF9222
:1001B000EF92FF92EEE8F0E0AAEAB0E0C12CD12C79
:1001C00076014281538141935193C40ED51EE11CA7
:1001D000F11CAE17BF07A9F79093AB008093AA005C
:1001E000A7019601280F391F411D511DCA01B901F0
:1001F0002FE030E040E050E09DD3C901FF90EF9048
:10020000DF90CF900895C79AC79808950F931F93D2
:10021000CF93DF93C498C7E0D0E0082F10E0C80167
:100220000C2E02C0959587950A94E2F780FF0AC0CC
:10023000C59AE9DF219798F7C49ADF91CF911F9172
:100240000F910895C598F5CF8A3040F4E82FF0E07B
:10025000EF59FF4F808161118068D8CF80E0FBCFDC
:1002600080918D008130E9F0882361F0823039F18E
:10027000833099F180918D008330D8F58F5F809322
:100280008D000895C098C39A2091700080918B00D2
:1002900090918C0068EE73E039D3862F622FD4DF03
:1002A000E9CFC09AC19820916F0080918B00909106
:1002B0008C0068EE73E02AD364E670E0EDCFC19A5B
:1002C000C29820916E0080918B0090918C0064E622
:1002D00070E01CD36AE070E0DFCFC29AC39820912F
:1002E0006D0080918B0090918C006AE070E00ED3DD
:1002F000D5CF10928D0008951F920F920FB60F92D6
:1003000011242F933F934F935F936F937F938F931A
:100310009F93AF93BF93EF93FF93809172008F5F92
:1003200080937200809171008F5F80937100809143
:100330007C0090917D00019690937D0080937C00DD
:100340008FDFFF91EF91BF91AF919F918F917F913F
:100350006F915F914F913F912F910F900FBE0F9032
:100360001F9018955D9BFECF8CB908958F929F9238
:10037000AF92BF92CF92DF92EF92FF92CF936B0139
:100380007C01C42F80E3EEDFC701B60120E03AEC28
:100390004AE95BE3CFD2812C41EE942E45EFA42EA7
:1003A00045E0B42EA5019401C5D2822F8063DADF27
:1003B000C701B601A5019401BDD250E8852E56E9CA
:1003C000952E58E9A52EB12CA5019401B3D2822F08
:1003D0008063C8DFC701B601A5019401ABD2E0E498
:1003E0008E2EE2E49E2EEFE0AE2EB12CA5019401FC
:1003F000A1D2822F8063B6DFC701B601A5019401A7
:1004000099D2F0EA8F2EF6E89F2EAA24A394B12C5D
:10041000A50194018FD2822F8063A4DFC701B601AA
:10042000A501940187D2A0E18A2EA7E29A2EA12CE1
:10043000B12CA50194017ED2822F806393DF80913D
:1004400070008823D9F18EE28DDFC701B60128EE56
:1004500033E040E050E06ED224E6822E912CA12CB5
:10046000B12CA501940166D2822F80637BDFC70186
:10047000B601A50194015ED23AE0832E912CA12C05
:10048000B12CA501940156D2822F80636BDFC70186
:10049000B601A50194014ED2862F806363DFCC2381
:1004A000D1F08AE05FDF8DE0CF91FF90EF90DF9099
:1004B000CF90BF90AF909F908F9054CFC701B6015F
:1004C000A501940137D228EE33E040E050E032D26B
:1004D000822F8063B9CFCF91FF90EF90DF90CF90C4
:1004E000BF90AF909F908F9008958BB180720895C8
:1004F0008D9A9598089582B390E2892782BB0895DA
:1005000095980895959A0895F3DFABDDC7DDBEDDBC
:1005100085B7806585BF78940AE010E0812C912C26
:100520005401A394412C512C5CE3652E712CC1E045
:1005300082992CC0809160008F5F843008F087C161
:1005400080936000C0937000C0936F00C0936E00F2
:10055000C0936D008091600090E090938C00809338
:100560008B002CEC8CEC9CE0215080409040E1F71B
:1005700000C010928C0010928B00109270001092AC
:100580006F0010926E0010926D00BADF80917300C0
:10059000823008F4BCC040917400509175006091A5
:1005A0007600709177008091780090917900A09109
:1005B0007A00B0917B00481759076A077B0788F4D7
:1005C0008091740090917500A0917600B0917700B1
:1005D00011968093740090937500A0937600B09369
:1005E0007700C0907400D0907500E0907600F09095
:1005F0007700409178005091790060917A00709175
:100600007B0080917E00C41AD50AE60AF70A90E0C2
:10061000B0E0A0E0DC0199278827C80ED91EEA1EA9
:10062000FB1EC0927F00D0928000E0928100F09289
:10063000820080916000823009F40CC1833009F49B
:100640002CC1813069F4C301B201A701960172D1B6
:10065000309386002093850030938C0020938B008C
:1006600080918B0090918C008031974208F424C1D6
:1006700080918B0090918C00B80148D170938C00D0
:1006800060938B00C0936F0081E0C81AD108E10825
:10069000F10899E9C91699E1D906E104F10408F0D5
:1006A0000EC180918B0090918C0080DD90938C0026
:1006B00080938B0080918B0090918C00B0E0A0E043
:1006C0008093870090938800A0938900B0938A005C
:1006D0008091740090917500A0917600B0917700A0
:1006E0008093780090937900A0937A00B0937B0078
:1006F000C093730010927E0089B7886889BF1092FA
:100700007200949AF8DE10927D0010927C00809125
:10071000720081119498809171008F37B0F16091CF
:100720008700709188008091890090918A0040E054
:100730001DDE8CE217DE80916000823009F4C5C0B6
:10074000833009F4C6C0813031F483E40BDE80E5E8
:1007500009DE8DE407DE8CE205DE60917F0070919A
:100760008000809181009091820040E0FFDD8CE26A
:10077000F9DD83E4F7DD8CE4F5DD8BE4F3DD8AE07D
:10078000F1DD8DE0EFDD1092710080917F0090919E
:100790008000A0918100B09182000197A109B10968
:1007A0008C359F40A105B10510F4C0936C00809179
:1007B0007C0090917D008115954028F180916C001E
:1007C000813009F510928C0010928B0010928700F6
:1007D000109288001092890010928A0010927D0079
:1007E00010927C0010927F00109280001092810085
:1007F000109282001092700010926F0010926E00A2
:1008000010926D007DDE80916000811191CE10927A
:100810008C0010928B00109287001092880010922A
:10082000890010928A0010927D0010927C009498AA
:1008300067DE939880E0EADC10926C0085B78062F6
:1008400085BF889585B78F7D85BF939A71CE1092AD
:10085000600078CE21E0C216D104E206F10478F0FF
:100860001092840010928300C093700080918300E6
:100870009091840090938C0080938B00F1CEC50101
:10088000B401A701960156D03093840020938300D1
:100890001092700010926F00E9CF28EE33E040E034
:1008A00050E0C701B60119D0BC0188279927709381
:1008B0008C0060938B00D4CE10926F00E5CE8091B7
:1008C0008B0090918C0072DCF5CE88E44BDD8AE7DA
:1008D00041CF8DE647DD83E53DCFEE27FF27AA27F1
:1008E000BB2708C0A20FB31FE41FF51F220F331F41
:1008F000441F551F969587957795679598F3704097
:10090000A9F7009799F7BD01CF010895AA1BBB1B5A
:1009100051E107C0AA1FBB1FA617B70710F0A61BFF
:10092000B70B881F991F5A95A9F780959095BC0120
:10093000CD010895A1E21A2EAA1BBB1BFD010DC01B
:10094000AA1FBB1FEE1FFF1FA217B307E407F5077F
:1009500020F0A21BB30BE40BF50B661F771F881F5B
:10096000991F1A9469F760957095809590959B01F1
:0C097000AC01BD01CF010895F894FFCF49
:0C097C00013F065B4F666D7D077F6F003A
:00000001FF
