:1000000014C052C02DC009C12BC0D7C02AC028C0FF
:1000100027C026C025C024C023C022C021C020C0C4
:100020001FC01EC01DC01CC01BC011241FBECFE5B9
:10003000D1E0DEBFCDBF10E0A0E6B0E0ECE4F5E03B
:1000400002C005900D92A63BB107D9F721E0A6EBBF
:10005000B0E001C01D92A131B207E1F718D274C21D
:10006000CFCF1F920F920FB60F9211242F933F9371
:100070004F935F936F937F938F939F93AF93BF93B0
:10008000EF93FF9317D1FF91EF91BF91AF919F91A4
:100090008F917F916F915F914F913F912F910F9031
:1000A0000FBE0F901F90189518958D9A95988A9865
:1000B000929A85B7826085BF8BB780648BBF0895A5
:1000C00082B390E2892782BB089595980895959A06
:1000D000089580B382FB882780F991E089270895ED
:1000E00087B3806B87BB88B38F7488BB87B38F60FF
:1000F00087BB88B38F6088BB0895DC0112962C9172
:100100001297EC9180E0EA3020F4F0E0EB56FF4FDC
:10011000808121118068C49827E030E090E0AC0134
:10012000022E02C0559547950A94E2F740FF14C08D
:10013000C59AC79AC7982150310988F7C49A9FE099
:10014000643028F4E62FF0E0EF56FF4F908188B33B
:10015000807F892B88BB0895C598EBCF12B88CE0BF
:1001600089B988E18AB986E083B90895FC01919143
:10017000911101C008955D9BFECF9CB9F8CF8E9878
:10018000969A8B9A939A8C9A94988EB580688EBD25
:100190008EB58F7B8EBD8EB583608EBD89B780682E
:1001A00089BF89B7886089BF089594980895949A03
:1001B000089593980895939A08951F921FB61F92D9
:1001C00011248F939F93AF93BF938091CD00909113
:1001D000CE00A091CF00B091D0008F3F9105A10536
:1001E000B10598F48091CD009091CE00A091CF0000
:1001F000B091D0000196A11DB11D8093CD009093C8
:10020000CE00A093CF00B093D000BF91AF919F914B
:100210008F911F901FBE1F9018952F932FB72F936C
:100220003F938F939F938091D100813049F082302A
:1002300099F09F918F913F912F912FBF2F911895FA
:1002400084B595B59093D5008093D4008091D1006A
:100250008F5F8093D100EDCF84B595B59093D30097
:100260008093D2008091D2009091D3002091D4004D
:100270003091D500821B930B8B389140D0F289B717
:10028000877789BFE3CF88E198E20FB6F894A89505
:1002900081BD0FBE91BD81B5886081BD0895F89480
:1002A000A89514BE81B5886181BD11BC789408956C
:1002B000A89508958091D6009091D700A091D8007C
:1002C000B091D9000196A11DB11D8093D6009093E5
:1002D000D700A093D800B093D90008950F931F932F
:1002E0000091D6001091D7002091D8003091D9000C
:1002F0006091D6007091D7008091D8009091D9007C
:10030000601771078207930759F71F910F9108959E
:100310008F929F92AF92BF92EF92FF921F93CF93D3
:10032000DF937C0110E0C12FD0E083E0CC0FDD1F14
:100330008A95E1F7CE0DDF1D8E819F81892B51F4C7
:10034000DF91CF911F91FF90EF90BF90AF909F9062
:100350008F900895C3DF8A809B80AC80BD80AB0105
:10036000BC01481959096A097B0988819981B0E063
:10037000A0E0481759076A077B0740F0EE81FF812C
:100380000995ACDF6A837B838C839D831F5FCBCF12
:1003900088EA90E0EBCE08958091DA008F5F843098
:1003A00068F48093DA002091DA00822F90E063E015
:1003B00070E0A5D0622F83529F4F9FCE1092DA003B
:1003C000F2CF9093DC008093DB0008958091DB00F6
:1003D0009091DC00009729F001979093DC008093C6
:1003E000DB0008959C018091DB009091DC00892B5B
:1003F000F1F5EDEDF0E08CE0DF011D928A95E9F773
:10040000662359F06530A1F581E08093DF00809389
:10041000E2008093E5008093E800C90160E177E2A3
:100420007FD0E8EEF3E0BF017BD06093DD00C9012F
:10043000BF0176D0E4E6F0E0BF0172D06093E00047
:1004400081E08093E100C901BF016AD0EAE0F0E0F9
:10045000BF0166D06093E30082E08093E400C901AD
:10046000BF015ED08093E60083E08093E7000895AB
:10047000E62FE150FF0BCF0163E070E040D08352E4
:100480009F4F41E0DC0112964C93C7CF11CFCDB7FF
:10049000DEB7E0970FB6F894DEBF0FBECDBF05DE26
:1004A0001FDE5CDE6CDEEFDE83B7826083BF89B760
:1004B000826089BF85B7806585BF789480E3E1E677
:1004C000F0E0DE01119601900D928A95E1F78FE937
:1004D00090E04CDE0F5F1F4F08358BE1180711F4D9
:1004E00010E000E0F6DD882319F082E390E069DF98
:1004F00061E0C80177DFCE0101960ADFEBCF00246F
:10050000552704C0080E591F880F991F009729F01E
:1005100076956795B8F37105B9F7802D952F0895F5
:10052000AA1BBB1B51E107C0AA1FBB1FA617B70719
:1005300010F0A61BB70B881F991F5A95A9F7809535
:0C0540009095BC01CD010895F894FFCF08
:10054C0001010800000000C801CC0000000000CB35
:10055C0001140000000000CC01CC0000000000E6FB
:10056C000102100000000046020000000000000024
:10057C00000E0D0B073F065B4F666D7D077F6F52BC
:10058C00657365742E0A0D0053657269616C205495
:06059C0061736B0D0A0003
:00000001FF
